:100000000C94D5000C94F6000C94F6000C94190393
:100010000C94F6000C94F6000C94F6000C94F60088
:100020000C94F6000C94F6000C94F6000C94F60078
:100030000C94F6000C94F6000C94F6000C94F60068
:100040000C94F6000C94F6000C94F6000C94F60058
:100050000C94F6000C94F6000C94F6000C94F60048
:100060000C94F6000C94F6000C94F6000C94F60038
:100070000C94F6000C94F6000C94F6000C94F60028
:100080000C94F6000C94F6000C94F6000C94B80650
:100090000C94F6000C94F6000C94F6000C9468088E
:1000A0000C94F6000C94F6000C94F6000C94F600F8
:1000B0000C94F6000C94F6000C94F6000C94F600E8
:1000C0000C94F6000C94F6000C94F6000C94F600D8
:1000D0000C94F6000C94F6000C94F6000C94F600C8
:1000E0000C94F6008708D908D908D908D908D90886
:1000F000D908D9088708D908D908D908D908D9084A
:10010000D908D9088908D908D908D908D908D90837
:10011000D908D908D908D908D908D908D908D908D7
:10012000D908D9088908D908D908D908D908D90817
:10013000D908D908D908D908D908D908D908D908B7
:10014000D908D908D508D908D908D908D908D908AB
:10015000D908D908B208D908D908D908D908D908BE
:10016000D908D908D908D908D908D908D908D90887
:10017000D908D908A608D908D908D908D908D908AA
:10018000D908D908C4080C94C4080C94F6080C9437
:10019000B2080C94EF080C94A6080C9487080C94F1
:1001A00089080C94D9080C94D50811241FBECFEFF0
:1001B000D1E2DEBFCDBF00E00CBF13E0A0E0B2E0B3
:1001C000EEE1F0E200E00BBF02C007900D92AE310D
:1001D000B107D9F723E0AEE1B3E001C01D92A3342B
:1001E000B207E1F70E94F8000C940D100C94000087
:1001F000CF93DF93CDB7DEB764970FB6F894DEBF29
:100200000FBECDBF789480E895E20E94FE080E9460
:10021000CC060E9485010E9461030E94B8070E94DB
:100220005C0580E090E00E94D405CE0101960E941A
:10023000FF0108850E948C05A12CB12CCE010B96E4
:100240000E94FF01DC84CA886B8970E080E090E046
:100250000E947B060E948C052D2D30E0121613069D
:1002600034F48A2D9B2D019682179307E1F7013014
:1002700009F041C00E94B303833098F081E00E94EE
:10028000F6020E94F8032FEF83EC99E021508040A2
:100290009040E1F700C0000080E00E94F602C12C0F
:1002A00032C00B851D2D2D853E854F855889698966
:1002B0007A898B899C890E94F5060E945907EB84F4
:1002C000FD2C0D851E852F85388949895A896B89B2
:1002D0007C8980E090E00E944906DC860B851D2D1C
:1002E0002D853E854F85588969897A898B899C89B6
:1002F0000E94C70708C0011106C00E94F80380E0F1
:1003000090E00E94C0050C2D99CF0E9475044FEF1C
:1003100060E680E60E94530440E060EE8FE00E94B9
:10032000530443E063E08BE20E94530440E063E047
:100330008CE20E9453048EE00E940C04807E49F0FF
:1003400087E092E09F938F930E94020C0F900F9092
:1003500008C088E292E09F938F930E94020C0F9056
:100360000F9080E090E00895EF92FF920F931F931B
:10037000CF93DF93CDB7DEB72A970FB6F894DEBFE1
:100380000FBECDBF09831A832B833C834D835E83CD
:100390006F83788789879A87602F669566956695BB
:1003A00081E30E941D0480E2089FB001112482E3D2
:1003B0000E941D04612F85E30E941D04112379F022
:1003C0007E01E3E0EE0EF11C1A5C06E3F701619199
:1003D0007F01802F0E941D040F5F0113F7CF80E083
:1003E0000E9431042A960FB6F894DEBF0FBECDBF2F
:1003F000DF91CF911F910F91FF90EF900895AF92F1
:10040000BF92CF92DF92EF92FF920F931F93CF9301
:10041000DF93CDB7DEB72A970FB6F894DEBF0FBED5
:10042000CDBF5C0181E60E940C04D82E82E60E94BA
:100430000C04DD0CDD0CDD0C829586958770D82AC6
:1004400085E60E940C04C82E882381F07E0183E09B
:10045000E80EF11C06E60C0D16E6812F0E940C0436
:10046000F70181937F011F5F1013F7CF60E08CE2EB
:100470000E941D04D982CA828AE0FE013196D5010C
:1004800001900D928A95E1F7C5012A960FB6F8946E
:10049000DEBF0FBECDBFDF91CF911F910F91FF90B7
:1004A000EF90DF90CF90BF90AF9008956F927F92C2
:1004B0008F929F92AF92BF92CF92DF92EF92FF9274
:1004C0000F931F93CF93DF93CDB7DEB764970FB62B
:1004D000F894DEBF0FBECDBF0E94850181E0898305
:1004E00088E08A831B8292E09C8394E09D8396E05F
:1004F0009E838F838AE088878CE089878EE08A8755
:100500000F2EF9E0AF2EB12CF02D0F2EF5E48F2E2B
:10051000F2E09F2EF02D0F2EFEE46F2EF2E07F2EE4
:10052000F02D0F2EFCE5CF2EF2E0DF2EF02D09810D
:100530001A812B813C814D815E816F81788589850F
:100540009A850E94B401CE010B960E94FF01EC84B3
:100550008B851F928F939F928F920E94020C0E2D7B
:1005600010E01F92EF927F926F920E94020C0FB6E2
:10057000F894DEBF0FBECDBF10161106ECF48E014D
:10058000035F1F4FF12C92E0E90EF11CEBE0F0E06D
:10059000EC0FFD1FEE0EFF1EF80181918F011F92DF
:1005A0008F93DF92CF920E94020C0F900F900F90CA
:1005B0000F900E151F0581F7F1E0AF1AB10809F091
:1005C000B6CF64960FB6F894DEBF0FBECDBFDF91F5
:1005D000CF911F910F91FF90EF90DF90CF90BF9040
:1005E000AF909F908F907F906F9008950F931F937F
:1005F000CF93DF93CDB7DEB72A970FB6F894DEBF5F
:100600000FBECDBF01E012E02B81382F4D815E81FE
:100610006F81788589859A850E94B4012A960FB6E4
:10062000F894DEBF0FBECDBFDF91CF911F910F9128
:1006300008951F920F920FB60F9211240F900FBEC4
:100640000F901F901895E2E0F1E080818F7B80830E
:100650008FE193E00197F1F700C000008081806492
:1006600080830895E1E0F1E080818860808380816B
:10067000806280838081806480830E942303089548
:10068000E2E0F1E080818F7D80838081877F8083BD
:100690008FE891E00197F1F700C00000A6E0B1E01B
:1006A0002C918081886080838FE891E00197F1F739
:1006B00000C000008C9190819062908390E0922B1A
:1006C0000895AAE7B0E08C9180688C93ECE7F0E0A5
:1006D0008081806480838C9181608C938C91826016
:1006E0008C938C9184608C9380818E7F80838081B9
:1006F0008D7F808380818B7F80838081877F8083D3
:1007000080818F7E8083EBE7F0E08081877F80832C
:10071000809A10923803109237030895EAE7F0E0C8
:10072000808180648083808184FFFDCF8091780008
:100730009091790008950F931F93CF93DF93C4E0B6
:10074000D0E000E010E00E948E03080F191F2197EF
:10075000D1F7C8019695879596958795DF91CF91AA
:100760001F910F91089580911E0390911F0303978D
:100770006CF40E949B03C29748F480911E039091F1
:100780001F03019690931F0380931E0380911E0305
:1007900090911F038130910551F08230910589F0CD
:1007A000892BA1F4809137039091380308958091AB
:1007B0003703909138030196909338038093370361
:1007C0000895809137039091380308950E949B0308
:1007D000C39748F010921F0310921E0380913703B5
:1007E00090913803089580913703909138030895CC
:1007F0001092380310923703089580E895E20E9422
:10080000FE080E9461030E94B30389EF90E0019704
:10081000F1F700C00000F7CFCF93C82F2F9828988A
:1008200083E00E94F0078C2F0E94F00780E00E9476
:10083000F0072F9A289ACF910895CF93DF93D82F5E
:10084000C62F2F98289882E00E94F0078D2F0E94D3
:10085000F0078C2F0E94F0072F9A289ADF91CF91F2
:1008600008952F982898813039F018F0823039F0A7
:1008700009C081E80E94F00782E80E94F00784E83E
:100880000E94F00787E80E94F0072F9A289A08959F
:100890002F98289880EA0E94F00780E00E94F007D5
:1008A0002F9A289A08951F93CF93DF93182FD62F4E
:1008B000C42F2F98289885E00E94F007812F0E946E
:1008C000F0078D2F0E94F0078C2F0E94F0072F9ABF
:1008D000289ADF91CF911F9108952F98289880EC46
:1008E0000E94F0072F9A289A0895CF930E94E2075A
:1008F0000E946D0440E860EE8FE00E9453048EE099
:100900000E940C04C82FC07E1F92CF9380E692E015
:100910009F938F930E94020C0F900F900F900F9057
:10092000C03851F08CE692E09F938F930E94020CA6
:100930000F900F9081E001C080E0CF910895CF9398
:10094000DF9300D0CDB7DEB790E599831A828B8311
:1009500063E0CE0101960E9413080F900F900F9054
:10096000DF91CF910895009719F0019739F008951C
:10097000E2E0F1E080818D7F80830895E2E0F1E0A4
:100980008081826080830895CF93DF93EC01992367
:100990003CF480E090E00E94B3048C2F819505C068
:1009A00081E090E00E94B3048C2F0E949F04DF91AD
:1009B000CF910895CF93DF938CE99FEF0E94C404F9
:1009C0002FEF83ED90E3215080409040E1F700C08D
:1009D00000000E944003EC0101C0EC012FEF81EE0A
:1009E00094E0215080409040E1F700C000000E9458
:1009F00040038C179D0789F780E090E00E94C404B3
:100A00002FEF89EC98E0215080409040E1F700C042
:100A100000000E942303DF91CF9108958CE99FEF9E
:100A20000E94C4042FEF83ED90E32150804090405A
:100A3000E1F700C000000E944003909323038093DD
:100A4000220384E690E00E94C4042FEF83ED90E33C
:100A5000215080409040E1F700C000000E94400318
:100A6000919581959109909321038093200380E0D3
:100A700090E00E94C404809123038F93809122030D
:100A80008F9380EA92E09F938F930E94020C809153
:100A900021038F93809120038F9388EB92E09F93A3
:100AA0008F930E94020C8DB79EB708960FB6F894EC
:100AB0009EBF0FBE8DBF08950E94FD07E1E0F1E0EB
:100AC000808180618083A2E0B1E08C9180618C9311
:100AD0008081826080830E943203E7E0F1E08081C0
:100AE0008E7F808380818D7F808380818B7F8083D8
:100AF0008081877F808380818F7E808380818F7DCE
:100B0000808380818F7B808380818F7780830E9428
:100B1000DA040E940E050895CF92DF92EF92FF92C1
:100B20000E94400366277727681B790B8091220378
:100B300090912303681B790B80E090E00E94930A58
:100B40006B017C018091200390912103BC01990FDE
:100B5000880B990B0E94950A9B01AC01C701B60155
:100B60000E94EB0920E030E04FE753E40E944A0B7B
:100B70000E94640A862FFF90EF90DF90CF90089537
:100B8000FC0117821682108611861286138680E871
:100B900090E09183808383E090E09383828382E07E
:100BA00090E09583848308950E94C005F894E1E95C
:100BB000F0E0808182608083E1E7F0E08081816005
:100BC000808378942FE986E891E02150804090401E
:100BD000E1F700C000000895CF92DF92EF92FF92FC
:100BE000FA018E3128F0282F823E18F021EE01C044
:100BF0002EE130E0261B310980819181289FD001B0
:100C0000299FB00D389FB00D1124C901332324F45E
:100C100088279927821B930B4097DCF040855185EC
:100C2000628573856901032E000CEE08FF084C0DE8
:100C30005D1D6E1D7F1D4087518762877387E2802F
:100C4000F380E49EC001E59E900DF49E900D11246A
:100C500002C080E090E08A0F9B1F46815781241BD1
:100C6000350B64817581269FA001279F500D369F0B
:100C7000500D1124840F951F992314F481589F4F10
:100C8000880F892F881F990BFF90EF90DF90CF90EE
:100C90000895EF92FF920F931F93CF93DF93CDB7F9
:100CA000DEB72A970FB6F894DEBF0FBECDBF3E83E6
:100CB00020912403309125032130310579F48C01F2
:100CC000FE800E948C05A801682F8F2D0E94EC05E4
:100CD0000E94C40410922503109224032A960FB692
:100CE000F894DEBF0FBECDBFDF91CF911F910F9162
:100CF000FF90EF900895FC016130710591F020F0B4
:100D000062307105D9F027C080E890E0918380833C
:100D100083E090E09383828382E090E095838483F4
:100D2000089580E890E0918380838AE090E0938347
:100D300082838BE090E095838483089580E491E042
:100D40009183808380E091E0938382838CE090E0C4
:100D500095838483089580E890E09183808383E085
:100D600090E09383828382E090E09583848308956A
:100D70001F920F920FB60F9211248F939F9381E0D1
:100D800090E090932503809324039F918F910F907F
:100D90000FBE0F901F901895A0E8B0E08C91826074
:100DA0008C93E1E8F0E080818860808380818061BD
:100DB00080838C9180688C938081826080838FE3B4
:100DC0009CE9909387008093860087EB9BE090934B
:100DD000890080938800259A80ED92E09F938F93FD
:100DE0000E94020C0F900F900895CF92DF92EF9225
:100DF000FF920F931F93CF93DF93CDB7DEB72A9760
:100E00000FB6F894DEBF0FBECDBF622F220F770B57
:100E1000880B990B0E94950A6B017C0120E030E061
:100E2000A9010E94E6098823DCF420E030E048ECC8
:100E300052E4C701B6010E947A0920E030E048EC94
:100E400052E40E94EB0920E030E040E05FE30E94C2
:100E50004A0B20E030E040E85FE30E947A0914C0CA
:100E600020E030E048EC52E4C701B6010E94EB09F3
:100E700020E030E040E05FE30E944A0B20E030E0F9
:100E800040EC5FE30E947A0920E030E040EA51E460
:100E90000E94EB092A960FB6F894DEBF0FBECDBFB5
:100EA000DF91CF911F910F91FF90EF90DF90CF9046
:100EB0000895CF92DF92EF92FF926B017C012BEEAF
:100EC00031E548E35DE30E94E609181654F42DE38A
:100ED0003AE047ED5DE3C701B6010E94450B882368
:100EE0004CF084EE92E09F938F930E94020C0F903F
:100EF0000F900EC020E03FE34CE157E4C701B6017C
:100F00000E944A0B0E94640A7093890060938800D3
:100F1000FF90EF90DF90CF900895CF93DF93CDB700
:100F2000DEB72A970FB6F894DEBF0FBECDBF80E8BC
:100F300095E20E94FE080E94CC060E948501CE0127
:100F400001960E94FF0109811A812B813C814D810C
:100F50005E816F81788589859A850E94F5060E9459
:100F6000590787EA91E60197F1F700C00000E7CF43
:100F7000249A2C9A08952C982FE58AEE90E021501F
:100F800080409040E1F700C000002C9A08950F9334
:100F90001F93CF93DF93CDB7DEB72A970FB6F894A0
:100FA000DEBF0FBECDBF413011F40E94BB072A96B1
:100FB0000FB6F894DEBF0FBECDBFDF91CF911F916A
:100FC0000F910895229A219A279A209A8CB58061D0
:100FD0008CBD8CB581608CBD8CB580648CBD089552
:100FE0008EBD0DB407FEFDCF8EB50895C82F0E94AB
:100FF000E2078C2F0E94F007FCCF8CE08093B800B2
:101000008FEF8093BB0084E08093BC0008958091B3
:10101000BC0081700895ECEBF0E0808180FDFDCF95
:10102000809100020895CF93DF93EC01ECEBF0E0A8
:10103000908190FDFDCF60932803988190932903C0
:1010400090FD13C0623088F0FE013196AAE2B3E051
:101050006250262F30E02E5F3F4FCE01820F931F4C
:1010600021912D93E817F907D9F71092260388EFFD
:101070008093000285EA8093BC00DF91CF910895B0
:10108000ECEBF0E0808180FDFDCF1092260388EF2D
:101090008093000285EA8093BC000895ECEBF0E0B9
:1010A000208120FDFDCF2091260320FF0DC0662367
:1010B00059F029E233E0A82FB92FF90181918D93DE
:1010C0008E2F821B8617D0F380912603817008959E
:1010D0001F920F920FB60F9211240BB60F922F93FF
:1010E0003F938F939F93AF93BF93EF93FF93E091C1
:1010F000B9008E2F90E0FC013897E135F10508F03A
:1011000058C08827EE58FF4F8F4F0C944F0910920C
:101110002703E091270380912803E81770F481E00A
:101120008E0F80932703F0E0E75DFC4F8081809372
:10113000BB0085E88093BC0043C08091260381609A
:101140008093260384E98093BC003AC0E091270392
:1011500081E08E0F809327038091BB00F0E0E75D74
:10116000FC4F80832091270330E08091280390E09A
:1011700001972817390724F485EC8093BC0020C020
:1011800085E88093BC001CC08091BB00E0912703E0
:10119000F0E0E75DFC4F80838091260381608093BF
:1011A000260384E98093BC000BC085EA8093BC00D1
:1011B00007C08091B9008093000284E08093BC0056
:1011C000FF91EF91BF91AF919F918F913F912F919F
:1011D0000F900BBE0F900FBE0F901F901895E0EC74
:1011E000F0E080818823ECF785E00895E0ECF0E002
:1011F000908195FFFDCF8093C600089582959295CA
:10120000907F9827807F98279C0140E050E060E025
:1012100074E284EF90E00E943009CA01B901615084
:101220007109810991090E94950A2AE939E949E180
:101230005EE30E944A0B0E945D0A7093C5006093B2
:10124000C400E1ECF0E0808180618083808188606F
:1012500080836FEE78E086EF98E00E94B70B0895E8
:10126000052E97FB1EF400940E94470957FD07D0F6
:101270000E94570907FC03D04EF40C94470950957F
:101280004095309521953F4F4F4F5F4F0895909572
:101290008095709561957F4F8F4F9F4F0895EE0F0A
:1012A000FF1F881F8BBF0790F691E02D1994A1E2D4
:1012B0001A2EAA1BBB1BFD010DC0AA1FBB1FEE1FD0
:1012C000FF1FA217B307E407F50720F0A21BB30B1B
:1012D000E40BF50B661F771F881F991F1A9469F797
:1012E00060957095809590959B01AC01BD01CF01F3
:1012F00008955058BB27AA270E9491090C940B0B04
:101300000E94FD0A38F00E94040B20F039F49F3F40
:1013100019F426F40C94FA0A0EF4E095E7FB0C9409
:10132000F40AE92F0E941C0B58F3BA1762077307DF
:101330008407950720F079F4A6F50C943E0B0EF483
:10134000E0950B2EBA2FA02D0B01B90190010C01D5
:10135000CA01A0011124FF27591B99F0593F50F4ED
:10136000503E68F11A16F040A22F232F342F442745
:10137000585FF3CF469537952795A795F04053953D
:10138000C9F77EF41F16BA0B620B730B840BBAF00D
:101390009150A1F0FF0FBB1F661F771F881FC2F778
:1013A0000EC0BA0F621F731F841F48F4879577958C
:1013B0006795B795F7959E3F08F0B0CF9395880F46
:1013C00008F09927EE0F9795879508950E94D00A07
:1013D00008F481E008950E94FF090C940B0B0E9411
:1013E000040B58F00E94FD0A40F029F45F3F29F0F9
:1013F0000C94F40A51110C943F0B0C94FA0A0E94BD
:101400001C0B68F39923B1F3552391F3951B550BEE
:10141000BB27AA2762177307840738F09F5F5F4FC7
:10142000220F331F441FAA1FA9F335D00E2E3AF006
:10143000E0E832D091505040E695001CCAF72BD01E
:10144000FE2F29D0660F771F881FBB1F261737076F
:101450004807AB07B0E809F0BB0B802DBF01FF27A1
:1014600093585F4F3AF09E3F510578F00C94F40A80
:101470000C943F0B5F3FE4F3983ED4F38695779549
:101480006795B795F7959F5FC9F7880F911D96955A
:10149000879597F90895E1E0660F771F881FBB1FB6
:1014A000621773078407BA0720F0621B730B840B63
:1014B000BA0BEE1F88F7E09508950E94640A6894BD
:1014C000B1110C943F0B08950E94240B88F09F5794
:1014D00098F0B92F9927B751B0F0E1F0660F771F58
:1014E000881F991F1AF0BA95C9F714C0B13091F04E
:1014F0000E943E0BB1E008950C943E0B672F782FAD
:101500008827B85F39F0B93FCCF386957795679512
:10151000B395D9F73EF490958095709561957F4F7E
:101520008F4F9F4F0895E89409C097FB3EF4909524
:101530008095709561957F4F8F4F9F4F9923A9F0AC
:10154000F92F96E9BB279395F6958795779567953B
:10155000B795F111F8CFFAF4BB0F11F460FF1BC07F
:101560006F5F7F4F8F4F9F4F16C0882311F096E912
:1015700011C0772321F09EE8872F762F05C06623C0
:1015800071F096E8862F70E060E02AF09A95660F79
:10159000771F881FDAF7880F9695879597F9089532
:1015A000990F0008550FAA0BE0E8FEEF1616170674
:1015B000E807F907C0F012161306E407F50798F0DC
:1015C000621B730B840B950B39F40A2661F0232BF5
:1015D000242B252B21F408950A2609F4A140A69571
:1015E0008FEF811D811D089597F99F6780E870E056
:1015F00060E008959FEF80EC089500240A94161689
:10160000170618060906089500240A9412161306F0
:10161000140605060895092E0394000C11F488237E
:1016200052F0BB0F40F4BF2B11F460FF04C06F5F9A
:101630007F4F8F4F9F4F089557FD9058440F551F70
:1016400059F05F3F71F04795880F97FB991F61F044
:101650009F3F79F087950895121613061406551FBB
:10166000F2CF4695F1DF08C0161617061806991F27
:10167000F1CF86957105610508940895E894BB271C
:1016800066277727CB0197F908950E94D00A08F4BE
:101690008FEF08950E945D0B0C940B0B0E94FD0AC6
:1016A00038F00E94040B20F0952311F00C94F40AFA
:1016B0000C94FA0A11240C943F0B0E941C0B70F33B
:1016C000959FC1F3950F50E0551F629FF001729FE7
:1016D000BB27F00DB11D639FAA27F00DB11DAA1FF6
:1016E000649F6627B00DA11D661F829F2227B00D43
:1016F000A11D621F739FB00DA11D621F839FA00DCE
:10170000611D221F749F3327A00D611D231F849F1D
:10171000600D211D822F762F6A2F11249F57504074
:101720009AF0F1F088234AF0EE0FFF1FBB1F661FEF
:10173000771F881F91505040A9F79E3F510580F0B8
:101740000C94F40A0C943F0B5F3FE4F3983ED4F3FF
:10175000869577956795B795F795E7959F5FC1F75C
:10176000FE2B880F911D9695879597F908950F93F5
:101770001F93CF93DF93009731F46115710519F42E
:1017800080E090E03AC08B01EC016EE070E081E017
:1017900090E00E94110EFC01892B91F380E8838375
:1017A0000115110571F01387028781E88383809109
:1017B000390390913A03892B21F4F0933A03E09393
:1017C00039032097C9F0D187C087838182608383E2
:1017D00080913B0390913C03892B71F4F0933C037F
:1017E000E0933B0380913D0390913E03892B21F4CC
:1017F000F0933E03E0933D03CF01DF91CF911F9122
:101800000F910895CF93DF93CDB7DEB7AE014A5F56
:101810005F4FFA0161917191AF0180913B0390910B
:101820003C030E94160CDF91CF9108952F923F92B6
:101830004F925F926F927F928F929F92AF92BF92E0
:10184000CF92DF92EF92FF920F931F93CF93DF938C
:10185000CDB7DEB72C970FB6F894DEBF0FBECDBF65
:101860007C016B018A01FC0117821682838181FF52
:10187000BDC1CE0101964C01F7019381F60193FDA4
:10188000859193FF81916F01882309F4ABC1853263
:1018900039F493FD859193FF81916F01853229F48D
:1018A000B70190E00E94770FE7CF512C312C20E058
:1018B0002032A0F48B3269F030F4803259F0833258
:1018C00069F420612CC08D3239F0803339F4216005
:1018D00026C02260246023C0286021C027FD27C0C5
:1018E00030ED380F3A3078F426FF06C0FAE05F9EFC
:1018F000300D1124532E13C08AE0389E300D112470
:10190000332E20620CC08E3221F426FD6BC1206480
:1019100006C08C3611F4206802C0883641F4F60106
:1019200093FD859193FF81916F018111C1CF982F14
:101930009F7D9554933028F40C5F1F4FFFE3F9838C
:101940000DC0833631F0833771F0833509F05BC009
:1019500022C0F801808189830E5F1F4F4424439485
:10196000512C540115C03801F2E06F0E711CF801C2
:10197000A080B18026FF03C0652D70E002C06FEF2C
:101980007FEFC5012C870E946C0F2C0183012C85F1
:101990002F77222E17C03801F2E06F0E711CF8016C
:1019A000A080B18026FF03C0652D70E002C06FEFFC
:1019B0007FEFC5012C870E945A0F2C012C852068CF
:1019C000222E830123FC1BC0832D90E0481659066C
:1019D000B0F4B70180E290E00E94770F3A94F4CF20
:1019E000F50127FC859127FE81915F01B70190E009
:1019F0000E94770F31103A94F1E04F1A51084114C8
:101A0000510471F7E5C0843611F0893639F5F801D3
:101A100027FF07C060817181828193810C5F1F4F16
:101A200008C060817181072E000C880B990B0E5F36
:101A30001F4F2F76722E97FF09C090958095709555
:101A400061957F4F8F4F9F4F2068722E2AE030E0C4
:101A5000A4010E94AF0FA82EA81844C0853729F40E
:101A60002F7EB22E2AE030E025C0F22FF97FBF2E64
:101A70008F36C1F018F4883579F0B4C0803719F08A
:101A8000883721F0AFC02F2F2061B22EB4FE0DC0D9
:101A90008B2D8460B82E09C024FF0AC09F2F96604A
:101AA000B92E06C028E030E005C020E130E002C0D9
:101AB00020E132E0F801B7FE07C0608171818281C8
:101AC00093810C5F1F4F06C06081718180E090E0C0
:101AD0000E5F1F4FA4010E94AF0FA82EA818FB2D68
:101AE000FF777F2E76FE0BC0372D3E7FA51450F476
:101AF00074FE0AC072FC08C0372D3E7E05C0BA2CA9
:101B0000372D03C0BA2C01C0B52C34FF0DC0FE0127
:101B1000EA0DF11D8081803311F4397E09C032FF56
:101B200006C0B394B39404C0832F867809F0B394AD
:101B300033FD13C030FF06C05A2CB31418F4530CF5
:101B40005B18B32CB31468F4B70180E290E03C87D3
:101B50000E94770FB3943C85F5CFB31410F43B1873
:101B600001C0312C34FF12C0B70180E390E03C8704
:101B70000E94770F3C8532FF17C031FD03C088E714
:101B800090E002C088E590E0B7010CC0832F867812
:101B900059F031FF02C08BE201C080E237FD8DE2D7
:101BA000B70190E00E94770FA51438F4B70180E3E5
:101BB00090E00E94770F5A94F7CFAA94F401EA0DAF
:101BC000F11D8081B70190E00E94770FA110F5CF41
:101BD000332009F451CEB70180E290E00E94770FE4
:101BE0003A94F6CFF7018681978102C08FEF9FEF7D
:101BF0002C960FB6F894DEBF0FBECDBFDF91CF910C
:101C00001F910F91FF90EF90DF90CF90BF90AF901A
:101C10009F908F907F906F905F904F903F902F900C
:101C200008950F931F93CF93DF93869F8001879F23
:101C3000100D969F100D1124C8010E942D0EEC016D
:101C4000009729F0A80160E070E00E94650FCE01C6
:101C5000DF91CF911F910F910895CF93DF93823041
:101C6000910510F482E090E0E0914103F09142038D
:101C700020E030E0C0E0D0E0309711F140815181A8
:101C800048175907C0F04817590761F482819381BA
:101C9000209719F09B838A832BC0909342038093F3
:101CA000410326C02115310519F04217530718F4D6
:101CB0009A01BE01DF01EF010280F381E02DDCCF4C
:101CC0002115310509F1281B390B2430310590F419
:101CD00012968D919C9113976115710521F0FB016E
:101CE0009383828304C09093420380934103FD0158
:101CF000329644C0FD01E20FF31F8193919322506D
:101D000031092D933C933AC020913F033091400319
:101D1000232B41F4209103023091040230934003BD
:101D200020933F03209101023091020221153105D9
:101D300041F42DB73EB74091050250910602241B95
:101D4000350BE0913F03F0914003E217F307A0F455
:101D50002E1B3F0B2817390778F0AC014E5F5F4F01
:101D60002417350748F04E0F5F1F509340034093F0
:101D70003F038193919302C0E0E0F0E0CF01DF9157
:101D8000CF9108950F931F93CF93DF93009709F49A
:101D90008CC0FC0132971382128200914103109192
:101DA00042030115110581F420813181820F931FB7
:101DB00020913F03309140032817390779F5F093BC
:101DC0004003E0933F0371C0D80140E050E0AE17FC
:101DD000BF0750F412962D913C911397AD01211538
:101DE000310509F1D901F3CF9D01DA013383228353
:101DF00060817181860F971F8217930769F4EC0148
:101E000028813981260F371F2E5F3F4F3183208372
:101E10008A819B8193838283452B29F4F09342032B
:101E2000E093410342C01396FC93EE931297ED01A9
:101E3000499159919E01240F351FE217F30771F460
:101E400080819181840F951F029611969C938E93A9
:101E50008281938113969C938E931297E0E0F0E039
:101E6000D80112968D919C911397009719F0F80163
:101E70008C01F6CF8D919C9198012E5F3F4F820F80
:101E8000931F20913F03309140032817390769F4CD
:101E9000309729F4109242031092410302C013823A
:101EA00012821093400300933F03DF91CF911F9163
:101EB0000F910895FC010590615070400110D8F712
:101EC000809590958E0F9F1F0895DC0101C06D9342
:101ED00041505040E0F70895FC016150704001907E
:101EE0000110D8F7809590958E0F9F1F08950F933E
:101EF0001F93CF93DF93FB01238121FD03C08FEF5D
:101F00009FEF28C022FF16C046815781248135816A
:101F10004217530744F4A081B1819D012F5F3F4FC9
:101F2000318320838C93268137812F5F3F4F378306
:101F3000268310C0EB01092F182F0084F185E02DB6
:101F40001995892BE1F68E819F8101969F838E835F
:101F5000812F902FDF91CF911F910F910895FA015A
:101F6000AA27283051F1203181F1E8946F936E7FD8
:101F70006E5F7F4F8F4F9F4FAF4FB1E03ED0B4E0C9
:101F80003CD0670F781F891F9A1FA11D680F791F0A
:101F90008A1F911DA11D6A0F711D811D911DA11D1B
:101FA00020D009F468943F912AE0269F112430192B
:101FB000305D3193DEF6CF010895462F4770405DC6
:101FC0004193B3E00FD0C9F7F6CF462F4F70405D75
:101FD0004A3318F0495D31FD4052419302D0A9F7D0
:101FE000EACFB4E0A6959795879577956795BA95CA
:101FF000C9F700976105710508959B01AC010A2E90
:1020000006945795479537952795BA95C9F7620F66
:0E201000731F841F951FA01D0895F894FFCF25
:10201E00F80000430320004D43503235313520691E
:10202E0073206E6F7420696E204E4F524D414C20BE
:10203E006D6F6465210A0D004D43503235313520E8
:10204E00697320696E204E4F524D414C206D6F6466
:10205E0065210A0D0049443A2025640A0D004C659D
:10206E006E677468203A2025640A0D0025642000EE
:10207E0056616C75653A2025690A0D004D43503244
:10208E00353135206973206E6F7420696E20636F51
:10209E006E66696775726174696F6E206D6F6465C7
:1020AE00206166746572207265736574210A0D0075
:1020BE004D494E20454E434F4445522056414C55B6
:1020CE0045202569200A0D004D415820454E434FAD
:1020DE004445522056414C5545202569200A0D0095
:1020EE0050574D20696E697469616C697A65642E0A
:1020FE00200A0D00496E76616C69642064757479EE
:10210E00206379636C652E205369676E616C206560
:10211E00786365656473206C696D69746174696F49
:0E212E006E73206F6620736572766F2E000050
:00000001FF
